:060000000A128A1100291A
:10000800F000030EF1000B180E20710E8300F00EA5
:10001800700E090003138312061C850A861C8503CB
:040028000B100800B1
:10020000172107210E212F2103138312062903131F
:1002100083160F140F178F120F1208000313831683
:10022000161496140313831206080B100800031704
:100230008316880189010313831606148614031399
:100240008316850103138316811303138316950107
:1002500015149514031383128501860108008B176A
:060260008B150B100800D5
:04400E00C430FF3F7C
:00000001FF
